S01300004156522050524F4A4543542E73726563F1
S11300000C942A000C944E000C943C000C943C007C
S11300100C943C000C943C000C943C000C943C006C
S11300200C943C000C943C000C943C000C943C005C
S11300300C943C000C943C000C943C000C943C004C
S11300400C943C000C943C000C943C000C943C003C
S11300500C943C0011241FBECFE5D8E0DEBFCDBF19
S113006020E0A0E6B0E001C01D92A136B207E1F79E
S11300700E94DC030C9495060C9400008FB78068F2
S11300808FBF85B7836085BF8BB780648BBF62E009
S113009084E40E9474000E94E103FDCF1F920F923A
S11300A00FB60F9211242F933F934F935F936F9347
S11300B07F938F939F93AF93BF93EF93FF930E948C
S11300C0E1030E948304FF91EF91BF91AF919F914F
S11300D08F917F916F915F914F913F912F910F90ED
S11300E00FBE0F901F901895CF93DF9300D0CDB71C
S11300F0DEB789836A836A81898140E00E94430173
S113010082E00F900F90DF91CF910895CF93DF930A
S113011000D0CDB7DEB789836A836A81898141E0E3
S11301200E94430181E00F900F90DF91CF910895D9
S11301301F93CF93DF9300D0CDB7DEB789836A8353
S1130140142F6A8189810E948600113039F46A81F2
S1130150898141E00E94E80181E00EC0111107C0CD
S11301606A81898140E00E94E80180E005C06A81DB
S113017089810E94B90382E00F900F90DF91CF91A3
S11301801F910895CF93DF9300D0CDB7DEB7898355
S11301906A836A8189810E9486006A81898141E03B
S11301A00E94980081E00F900F90DF91CF91089505
S11301B0CF92DF92EF92FF92CF93DF9300D0CDB72F
S11301C0DEB789836A8369017A016A8189810E9421
S11301D086006A81898141E00E949800C701B601C6
S11301E00E948D026A81898140E00E949800C701C3
S11301F0B6010E948D0282E00F900F90DF91CF91A3
S1130200FF90EF90DF90CF900895CF93DF9300D0CD
S1130210CDB7DEB789836A836A8189810E948600AB
S11302206A81898140E00E94980080E00F900F90DD
S1130230DF91CF910895CF92DF92EF92FF920F93C7
S11302401F93CF93DF9300D0CDB7DEB789836A8342
S11302506801790107C06A818981A70196010E941A
S1130260D800A8018A0101501109452BA1F783E0A8
S11302700F900F90DF91CF911F910F91FF90EF900E
S1130280DF90CF900895CF93DF9300D0CDB7DEB742
S113029089836A838981823461F118F4813441F05D
S11302A089C0833409F446C0843409F463C082C02D
S11302B041110FC02A8181E090E002C0880F991F8C
S11302C02A95E2F7809590959AB389238ABB80E0BA
S11302D07AC0413009F070C02A8181E090E002C008
S11302E0880F991F2A95E2F79AB3892B8ABB80E07D
S11302F06AC041110FC02A8181E090E002C0880FDA
S1130300991F2A95E2F78095909597B3892387BB27
S113031080E059C0413009F051C02A8181E090E069
S113032002C0880F991F2A95E2F797B3892B87BBE0
S113033080E049C041110FC02A8181E090E002C0F1
S1130340880F991F2A95E2F78095909594B3892395
S113035084BB80E038C0413099F52A8181E090E087
S113036002C0880F991F2A95E2F794B3892B84BBA6
S113037080E029C041110FC02A8181E090E002C0D1
S1130380880F991F2A95E2F78095909591B3892358
S113039081BB80E018C04130A9F42A8181E090E05B
S11303A002C0880F991F2A95E2F791B3892B81BB6C
S11303B080E009C081E007C081E005C081E003C09E
S11303C081E001C081E00F900F90DF91CF910895FB
S11303D0CF93DF9300D0CDB7DEB789836A83898159
S11303E0823461F118F4813441F089C0833409F412
S11303F046C0843409F463C082C041110FC02A810D
S113040081E090E002C0880F991F2A95E2F7809559
S113041090959BB389238BBB80E07AC0413009F06F
S113042070C02A8181E090E002C0880F991F2A954C
S1130430E2F79BB3892B8BBB80E06AC041110FC0EC
S11304402A8181E090E002C0880F991F2A95E2F783
S11304508095909598B3892388BB80E059C041303A
S113046009F051C02A8181E090E002C0880F991FF1
S11304702A95E2F798B3892B88BB80E049C04111E3
S11304800FC02A8181E090E002C0880F991F2A954D
S1130490E2F78095909595B3892385BB80E038C0B9
S11304A0413099F52A8181E090E002C0880F991FBC
S11304B02A95E2F795B3892B85BB80E029C04111C9
S11304C00FC02A8181E090E002C0880F991F2A950D
S11304D0E2F78095909592B3892382BB80E018C09F
S11304E04130A9F42A8181E090E002C0880F991F6D
S11304F02A95E2F792B3892B82BB80E009C081E0A0
S113050007C081E005C081E003C081E001C081E053
S11305100F900F90DF91CF9108958F929F92AF9299
S1130520BF92CF92DF92EF92FF92CF93DF936B0152
S11305307C012DEB37E346E859E30E942D0518169C
S1130540FCF013BEA70196016DEB77E386E899E30F
S11305500E94A9042DEB37E346E855E30E943205D7
S11305600E9416050E94AB0562BF83B7816083BFFA
S113057008B600FEFDCF88B7816088BF80E0EEC07A
S11305802DEB37E346E05BE3C701B6010E942D057E
S11305901816FCF013BEA70196016DEB77E386E015
S11305A09BE30E94A9042DEB37E346E057E30E9446
S11305B032050E9416050E94AB0562BF83B78260B4
S11305C083BF08B600FEFDCF88B7816088BF80E096
S11305D0C5C02DEB37E346E85CE3C701B6010E94D2
S11305E02D05181614F113BEA70196016DEB77E3E0
S11305F086E89CE30E94A9042DEB37E346E858E320
S11306000E9432050E9416050E94AB0562BF83B7A3
S1130610816083BF83B7826083BF08B600FEFDCFCD
S113062088B7816088BF80E099C02DEB37E346E846
S11306305DE3C701B6010E942D051816FCF013BE38
S1130640A70196016DEB77E386E89DE30E94A90478
S11306502DEB37E346E859E30E9432050E94160564
S11306600E94AB0562BF83B7846083BF08B600FEF7
S1130670FDCF88B7816088BF80E070C02DEB37E381
S113068046E85EE3C701B6010E942D05181604F181
S113069013BEA70196016DEB77E386E89EE30E9403
S11306A0A9042DEB37E346E85AE30E9432050E9481
S11306B0A40562BF83B7816083BF83B7846083BFAF
S11306C008B600FEFDCF88B7816088BF80E046C0D1
S11306D02DEB37E346E85EE3C701B6010E949006BE
S11306E01816DCF52DEB37E346E85EE3C701B601E7
S11306F00E9432054B015C010E9416050E94A4056C
S1130700EB0127C013BE2DEB37E346E85AE3C701DC
S1130710B6010E943205A50194010E9432059B0195
S1130720AC0160E070E080E893E40E94A9040E94B8
S113073016050E94AB0562BF83B7816083BF83B790
S1130740846083BF08B600FEFDCF88B7816088BF90
S113075021972097B9F680E001C081E0DF91CF9125
S1130760FF90EF90DF90CF90BF90AF909F908F90CD
S11307700895CF93DF9300D0CDB7DEB789836A8322
S11307806A81898141E00E94E80160E070E080EACA
S113079090E40E948D026A81898140E00E94E80110
S11307A060E070E080EA90E40E948D0280E00F90A7
S11307B00F90DF91CF9108950E943E0080E090E079
S11307C008950F931F93CF9360E081E40E94C200C9
S11307D087E48093600060E070E080EA90E40E9427
S11307E08D0260E081E40E940501C9E5C0936000C8
S11307F000E010E020E03FE345E050E061E081E408
S11308000E941B0162E081E40E94C20082E58093A1
S1130810600060E070E080EA90E40E948D0262E093
S113082081E40E940501C093600000E010E020E034
S11308303FE345E050E061E081E40E941B018091C8
S11308406000CF911F910F91089562E081E40E94AE
S1130850C20060E082E40E94C20060E070E080EACE
S113086090E40E948D0262E081E40E94050160E050
S113087082E40E94050180E00895CF93DF9362E053
S113088082E40E94C200C5E0D0E01DC061E082E4C1
S11308900E94C20061E081E40E94C20060E070E056
S11308A080E09FE30E948D0261E082E40E940501E2
S11308B061E081E40E94050160E070E080E09FE374
S11308C00E948D022197209709F760E082E40E943C
S11308D0C20062E081E40E94C20060E070E080EA4D
S11308E090E40E948D0262E082E40E94050160E0CF
S11308F082E40E94050162E081E40E94050181E036
S1130900DF91CF910895823559F462E081E40E9429
S113091005010E94250462E081E40E94C20017C020
S1130920873459F460E081E40E9405010E943D048B
S113093060E081E40E94C2000AC061E081E40E9498
S113094005010E943D0461E081E40E94C20080E050
S113095008955058BB27AA270E94C1040C943E0650
S11309600E94300638F00E94370620F039F49F3F89
S113097019F426F40C942D060EF4E095E7FB0C9480
S1130980FE05E92F0E944F0658F3BA176207730752
S11309908407950720F079F4A6F50C9489060EF4E3
S11309A0E0950B2EBA2FA02D0B01B90190010C017B
S11309B0CA01A0011124FF27591B99F0593F50F493
S11309C0503E68F11A16F040A22F232F342F4427EB
S11309D0585FF3CF469537952795A795F0405395E3
S11309E0C9F77EF41F16BA0B620B730B840BBAF0B3
S11309F09150A1F0FF0FBB1F661F771F881FC2F71E
S1130A000EC0BA0F621F731F841F48F48795779531
S1130A106795B795F7959E3F08F0B0CF9395880FEB
S1130A2008F09927EE0F9795879508950E9471060F
S1130A3090F09F3748F4911116F40C948A0660E004
S1130A4070E080E89FE3089526F01B16611D711D78
S1130A50811D0C9404060C941F060E94DA0508F408
S1130A6081E008950E9446050C943E060E943706D4
S1130A7058F00E94300640F029F45F3F29F00C94AE
S1130A80FE0551110C948A060C942D060E944F0603
S1130A9068F39923B1F3552391F3951B550BBB27A9
S1130AA0AA2762177307840738F09F5F5F4F220FEE
S1130AB0331F441FAA1FA9F335D00E2E3AF0E0E8E5
S1130AC032D091505040E695001CCAF72BD0FE2F2F
S1130AD029D0660F771F881FBB1F261737074807C3
S1130AE0AB07B0E809F0BB0B802DBF01FF2793587B
S1130AF05F4F3AF09E3F510578F00C94FE050C943C
S1130B008A065F3FE4F3983ED4F38695779567951C
S1130B10B795F7959F5FC9F7880F911D96958795AF
S1130B2097F90895E1E0660F771F881FBB1F6217CE
S1130B3073078407BA0720F0621B730B840BBA0B8C
S1130B40EE1F88F7E09508950E94AB056894B111F3
S1130B500C948A0608950E94570688F09F5798F0CF
S1130B60B92F9927B751B0F0E1F0660F771F881FAE
S1130B70991F1AF0BA95C9F714C0B13091F00E94C8
S1130B808906B1E008950C948906672F782F882789
S1130B90B85F39F0B93FCCF3869577956795B395EF
S1130BA0D9F73EF490958095709561957F4F8F4F5E
S1130BB09F4F0895990F0008550FAA0BE0E8FEEF28
S1130BC016161706E807F907C0F012161306E4070D
S1130BD0F50798F0621B730B840B950B39F40A2606
S1130BE061F0232B242B252B21F408950A2609F4E4
S1130BF0A140A6958FEF811D811D089597F99F67E8
S1130C0080E870E060E00895882371F4772321F090
S1130C109850872B762F07C0662311F499270DC0AF
S1130C209051862B70E060E02AF09A95660F771F4A
S1130C30881FDAF7880F9695879597F908959F3F4F
S1130C4031F0915020F4879577956795B795880F83
S1130C50911D9695879597F908959FEF80EC0895D7
S1130C6000240A9416161706180609060895002487
S1130C700A9412161306140605060895092E039401
S1130C80000C11F4882352F0BB0F40F4BF2B11F475
S1130C9060FF04C06F5F7F4F8F4F9F4F089557FDD4
S1130CA09058440F551F59F05F3F71F04795880FD6
S1130CB097FB991F61F09F3F79F08795089512166D
S1130CC013061406551FF2CF4695F1DF08C0161619
S1130CD017061806991FF1CF8695710561050894CA
S1130CE008950E945706A0F0BEE7B91788F4BB2701
S1130CF09F3860F41616B11D672F782F8827985FE8
S1130D00F7CF869577956795B11D93959639C8F376
S1130D100895E894BB2766277727CB0197F90895B0
S1110D200E94DA0508F48FEF0895F894FFCFCF
S9030000FC
